:020000040800F2
:100000000000022095700008AD140008AF1400082D
:10001000B1140008B3140008B51400080000000073
:10002000000000000000000000000000C16D00089A
:10003000B714000800000000616E0008B914000841
:10004000E5700008E5700008E5700008E57000083C
:10005000E5700008E5700008E5700008E57000082C
:10006000E5700008E5700008E5700008E57000081C
:10007000E5700008E5700008E5700008E57000080C
:10008000E5700008E5700008E5700008E5700008FC
:10009000E5700008E5700008E5700008CF1400085E
:1000A000E5700008E5700008E5700008E5700008DC
:1000B000E5700008E5700008E5700008E5700008CC
:1000C000E5700008E5700008E5700008E5700008BC
:1000D000E5700008E5700008E5700008DD14000810
:1000E000ED140008E5700008E5700008E5700008F0
:1000F000E5700008E5700008E5700008E57000088C
:10010000E5700008E5700008E5700008E57000087B
:10011000E5700008E5700008E5700008E57000086B
:10012000E5700008E5700008E5700008E57000085B
:10013000E5700008E5700008E5700008E57000084B
:10014000E5700008E5700008E5700008E57000083B
:10015000E5700008E5700008E5700008E57000082B
:10016000E5700008E5700008E5700008E57000081B
:10017000E5700008E5700008E57000080000000068
:08018000E5700008E5700008BD
:1001900010B5054C237833B9044B13B10448AFF3C1
:1001A00000800123237010BDE0000020000000004B
:1001B000B879000808B5034B1BB103490348AFF3F6
:1001C000008008BD00000000E4000020B8790008AD
:1001D000034613F8012B002AFBD1181A0138704787
:1001E00001F0FF01102A2BDB10F0070F08D010F8E8
:1001F000013B013A8B422DD010F0070F42B3F6D1EC
:10020000F0B441EA012141EA014122F007047FF004
:1002100000070023F0E80256083C85EA010586EA5B
:10022000010685FA47F5A3FA87F586FA47F6A5FA97
:1002300087F68EB9EED1F0BC01F0FF0102F00702A3
:1002400032B110F8013B013A83EA010313B1F8D14E
:100250000020704701387047002D06BF354603382F
:10026000073815F0010F07D1013015F4807F02BF68
:10027000013015F4C03F0130F0BC0138704700BFB9
:100280007BB972B90029BEBF00204FF0004106E0E3
:1002900008BF00281CBF6FF000414FF0FF3000F096
:1002A000B9B9ADF1080C6DE904CE002909DB002BCA
:1002B0001ADB00F04DF8DDF804E0DDE9022304B0BC
:1002C0007047404261EB4101002B1BDB00F040F81E
:1002D000DDF804E0DDE9022304B0404261EB4101B6
:1002E000524263EB43037047524263EB430300F017
:1002F0002FF8DDF804E0DDE9022304B0404261EBB1
:1003000041017047524263EB430300F021F8DDF8EE
:1003100004E0DDE9022304B0524263EB430370477B
:1003200053B94AB9002908BF00281CBF4FF0FF315C
:100330004FF0FF3000F06EB9ADF1080C6DE904CE5E
:1003400000F006F8DDF804E0DDE9022304B07047B0
:100350002DE9F047089D04468C46002B40F0838031
:100360008A42174647D9B2FA82F242B1C2F120005E
:1003700024FA00F09140974040EA010C94404FEA83
:100380001748230CBCFBF8F61FFA87FE08FB16C1C2
:1003900043EA014306FB0EF1994209D9FB1806F125
:1003A000FF3080F01981994240F21681023E3B44B1
:1003B0005B1AA4B2B3FBF8F008FB103344EA034421
:1003C00000FB0EFEA64509D93C1900F1FF3380F071
:1003D0000581A64540F2028102383C4440EA0640CD
:1003E000A4EB0E0400261DB1D4400023C5E9004350
:1003F0003146BDE8F08702B9FFDEB2FA82F2002A88
:1004000050D1CB1B4FEA174E1FFA87F80126B3FBDA
:10041000FEFC210C0EFB1C3341EA034108FB0CF3EC
:100420008B4207D979180CF1FF3002D28B4200F2CF
:10043000E9808446C91AA3B2B1FBFEF00EFB10118D
:1004400043EA014408FB00F8A04507D93C1900F134
:10045000FF3302D2A04500F2D9801846A4EB08046D
:1004600040EA0C40BFE78B4209D9002D00F0B18073
:100470000026C5E9000130463146BDE8F087B3FAF1
:1004800083F6002E4AD18B4202D3824200F2B8801A
:10049000841A61EB030101208C46002DA8D0C5E928
:1004A000004CA5E7C2F1200320FA03F6974001FAB9
:1004B00002F04FEA174ED9403043030CB1FBFEF671
:1004C0001FFA87F80EFB161143EA014306FB08F1F9
:1004D000994204FA02F409D9FB1806F1FF3C80F0B6
:1004E0008D80994240F28A80023E3B445B1A81B281
:1004F000B3FBFEF00EFB103341EA034100FB08F3AF
:100500008B4207D9791800F1FF3C73D28B4271D925
:1005100002383944CB1A40EA064678E7C6F1200C87
:1005200003FA06F422FA0CF31C4320FA0CF701FA42
:1005300006F34FEA144E21FA0CF11F433B0CB1FBBA
:10054000FEF91FFA84F80EFB191143EA014109FB79
:1005500008FA8A4502FA06F200FA06F308D9611889
:1005600009F1FF3048D28A4546D9A9F10209214450
:10057000A1EB0A01BFB2B1FBFEF00EFB101147EA7E
:10058000014700FB08F8B84507D9E71900F1FF312A
:100590002ED2B8452CD90238274440EA0940A7EBAF
:1005A0000807A0FB02894F45C64649461AD317D013
:1005B0005DB1B3EB0E0267EB010707FA0CFCF240EA
:1005C0004CEA0202F740C5E9002700263146BDE8A3
:1005D000F0872E4628460BE70646E9E61846FDE674
:1005E0004345E5D2B8EB020E69EB04010138DFE7C1
:1005F0000846D2E760468DE78146B9E7664675E76B
:1006000030464AE7ACF1020C394413E702383C4467
:1006100024E700BF704700BFFEE700002DE9F04F60
:100620008DB000240794089409940A940B940194C3
:100630006C4B1A6B42F010021A631A6B02F0100234
:100640000192019A02941A6B42F004021A631A6B27
:1006500002F004020292029A03941A6B42F08002A2
:100660001A631A6B02F080020392039A04941A6BC5
:1006700042F001021A631A6B02F001020492049A1A
:1006800005941A6B42F002021A631A6B02F002021E
:100690000592059A06941A6B42F008021A631B6BC6
:1006A00003F008030693069BDFF84C9122460821CD
:1006B000484602F083F94C4F01221146384602F0B9
:1006C0007DF94A4E224648F21701304602F076F98B
:1006D0004FF00808CDF81C800125089509940A946C
:1006E00007A9484601F0E6FF0795089509940A9482
:1006F00007A9384601F0DEFFCDF81C804FF0020854
:10070000CDF8208009940A944FF0050ACDF82CA06A
:1007100007A9384601F0CEFF0795354B0893099499
:10072000A7F5006707A9384601F0C4FF0423079323
:1007300008940994DFF8C4B007A9584601F0BAFF3D
:100740004FF4206307932B4B0893099407A948465D
:1007500001F0B0FF4FF480630793CDF82080099437
:100760000A94CDF82CA007A9584601F0A3FF48F23F
:1007700017030793089509940A9407A9304601F0D6
:1007800099FF4FF4007307930894099407A938461A
:1007900001F090FF4FF4E0530793CDF820800994C7
:1007A0000A940A230B9307A9384601F083FF2023FC
:1007B00007930894099407A9304601F07BFF22466D
:1007C0002146172002F07EF9172002F0AFF92246E9
:1007D0002146282002F076F9282002F0A7F90DB072
:1007E000BDE8F08F0038024000080240000C0240D3
:1007F000000012100000111000100240000402401E
:1008000000B583B00FE04FF47A73009301231A46CA
:1008100007211B48006804F063FB1A4B186000F0C6
:100820000700072814D0184B1B78372BEBD0382B38
:1008300012D0352BF7D14FF47A73009301231A4667
:1008400007210F48006804F04BFB0E4B1860DAE7F5
:100850000E4802F0CFFDE6E74FF47A7300930123D0
:100860001A460D210648006804F03AFB054B186053
:1008700000F00D000D28D6D1044802F0BBFDD2E7F0
:10088000784C0020644D00200C0100206C4B0020AF
:1008900000B583B02C4B1B78002B3DD02B4B019324
:1008A0000523009300234FF400722949294805F0DD
:1008B000A7F9294B01930423009300234FF480727E
:1008C0002649274805F09CF9264B01930323009302
:1008D00000234FF480722449244805F091F91A4B03
:1008E0001B78382B24D1224B019302230093002341
:1008F0004FF480721F49204805F082F91F4B019385
:100900000123009300234FF400721D491D4805F098
:1009100077F903B05DF804FB1B4B019306230093AA
:1009200000234FF480721949194805F069F9B5E7B9
:10093000184B01930223009300234FF400721649D1
:10094000164805F05DF9CEE70C01002014010020E7
:10095000DC7900088D0E000800010020E87900080D
:100960000108000810010020F0790008E90C0008D7
:1009700008010020007A000819060008180100206C
:10098000087A0008F50F000804010020D07900085B
:10099000790C0008FC000020F4790008050E00081E
:1009A00030B58FB009AC1B4D0FCD0FC42B68237031
:1009B0006C46194D0FCD0FC40FCD0FC42B6823808B
:1009C000164C01222146164803F0E1FD2378362B10
:1009D0001AD00DD9413BDBB2022B0DD96423102272
:1009E00009A90F4803F0D3FB0C4B00221A7009E051
:1009F000313BDBB2042BF1D832232122694608486F
:100A000003F0C5FB0FB030BD064B186805F0CCF9FC
:100A1000F8E700BF147A0008287A00080C010020CB
:100A20008C4A00200401002010B50446B0F5007F78
:100A300003D0B4F5006F08D010BD084B37221A70F0
:100A4000074B186805F0B0F9F3E7044B38221A7029
:100A5000034B186805F0A8F9EEE700BF0C01002071
:100A60001401002008B501220249034803F08FFD5C
:100A700008BD00BF0C0100208C4A002030B591B0A9
:100A80000AAC1B4D0FCD0FC495E8030084E80300AA
:100A900005AC184D0FCD0FC42B682360164B01AC6D
:100AA0000FCB07C42380154C42F2107317220AA9FA
:100AB000204603F06CFB4FF4FA7002F0ADF842F2FE
:100AC0001073132205A9204603F061FB4FF4FA705E
:100AD00002F0A2F842F210730D2201A9204603F0A1
:100AE00056FB4FF4FA7002F097F811B030BD00BF1A
:100AF0004C7A0008647A0008787A0008204D0020BB
:100B000030B595B00FAC544D0FCD0FC42B6823609A
:100B1000524B0BAC0FCB07C424F8023B1B0C2370C9
:100B200001AC4F4D0FCD0FC40FCD0FC495E803009E
:100B300084E803004B4B1B78313B122B28D8DFE8AD
:100B400003F00A1A30444E5827272727272727273C
:100B5000272762718000434C6423012221464248CA
:100B600003F015FB6423272201A9404803F00FFB83
:100B7000002323700CE0642301223A493A4803F031
:100B800006FB3B4802F073FC20B1364B00221A7082
:100B900015B030BD64230E220BA9334803F0F7FAD9
:100BA000F3E7642301222F492F4803F0F0FA03F002
:100BB00019FE18B92B4B00221A70E9E764230E22A4
:100BC0000BA9294803F0E3FAF4E7264C6423012239
:100BD0002146254803F0DBFA00232370D8E764237D
:100BE00001222049204803F0D2FA002005F02EFB14
:100BF000CEE7642313220FA91B4803F0C8FA194B50
:100C000000221A70C4E7174C6423012221461648BB
:100C100003F0BDFA01220421164801F0CFFE0023A3
:100C20002370B5E70F4C6423012221460E4803F0E0
:100C3000AEFA002204210F4801F0C0FE0023237009
:100C4000A6E7084C642301222146074803F09FFAD7
:100C5000002323709CE700BF887A00089C7A000874
:100C6000AC7A00080C0100208C4A0020204D0020A6
:100C7000584C0020000C024000B587B001AC0B4D71
:100C80000FCD0FC42B6824F8023B1B0C2370642388
:100C9000122201A9064803F07AFA01E0FFF730FFBB
:100CA000044B1B78002BFBD0F8E700BFD47A000878
:100CB0008C4A00200C010020F8B506460C4615466B
:100CC000084F0022384602F034FD002229463846FB
:100CD00002F057FD35460FCC0FC523682B60304618
:100CE000F8BD00BF584C002030B58FB000230993E9
:100CF0000A930B930C930D93089305F0F9F8079062
:100D000008AA09A96846FFF7D7FF09AD6C460FCCC2
:100D10000FC523682B6000234FF47A7209A90B4892
:100D2000006804F051FB002309930A930B930C9382
:100D30000D930121064B186804F058F9054B186013
:100D4000012107A805F0E4F9DAE700BF684D0020AB
:100D5000784C0020644D002030B585B00546002455
:100D60000294ADF80C4005F0C3F8019019E002A818
:100D700003F060FDBDF9083025F81430BDF90A20F4
:100D800004F1180305EB43035A80BDF90C2004F16C
:100D9000300305EB43039A80282101A805F0B8F938
:100DA0000134182CE3DD05B030BD000070B582B011
:100DB00004460D460026ADF80060ADF80260ADF8BF
:100DC00004606A461921284603F0C2FF0DF10202B1
:100DD000192105F1320003F0BBFF01AA192105F129
:100DE000640003F0B5FF96223146054806F0AEF9DF
:100DF00000982060BDF80430A380204602B070BD8A
:100E0000784B002000B585B0104C2046FFF7A4FFBA
:100E100021466846FFF7CAFF00980290BDF80430EB
:100E2000ADF80C3000234FF47A7202A9084800682C
:100E300004F0CAFA00230293ADF80C300221054BEE
:100E4000186804F0D3F8044B1860DDE7784B0020F5
:100E5000C44C0020784C0020644D002070B506463C
:100E60000D4601F06BFB02210B2001F0F7FB002483
:100E700006E02A4600233146022001F0B1FB01348E
:100E8000022CF6DD01F072FB70BD000000B58DB0E4
:100E900006AC264D0FCD0FC495E8030044F8040BB3
:100EA00024F8021B090C217001AC214D0FCD0FC499
:100EB0002B6823806423162206A91E4803F067F9D5
:100EC0001D4B1B78082B0FD01C4B186805F0BEF982
:100ED0000AE007211A48FFF7C1FF1A4B186804F00F
:100EE000C3FE002005F0B2F9134B1B78372BF0D06E
:100EF000382B0BD0352BF7D16423112201A90D48D3
:100F000003F045F9002005F0A1F9EDE70B4B186857
:100F100004F006FF0C4B186804F0A6FE0B4B186893
:100F200004F052FC002004F09FFEDDE7E87A0008A0
:100F3000007B0008204D00200C010020080100204B
:100F400000000E0804010020FC000020C44C00201A
:100F50000068704708B50648FFF7FAFF072803D076
:100F6000082803D0002008BD3720FCE73820FAE726
:100F700000000E0808B5064B1B78373BDBB2012B8F
:100F800000D908BD01220421024801F017FDF8E74D
:100F90000C010020000C024070B584B006460D46DE
:100FA000142005F0F7FD0446B378B5F90020B5F933
:100FB0000210B5F9045003950291019200937378E1
:100FC000094A1278094906F0C9F82046FFF700F9E6
:100FD0004FF47A7382B22146054803F0D8F82046D0
:100FE00005F056FE04B070BD0C010020147B000813
:100FF000204D002000B589B000230393049305938E
:101000000693079321E04FF0FF3203A9124B1868B3
:1010100004F002FB4FF0FF3201A9104B186804F0F6
:10102000FBFA01A903A8FFF7B7FF0023039304937A
:101030000593069307930193ADF808300421084BFC
:10104000186803F0D3FF074B1860074B1B78352B4C
:10105000D9D0372BF9D1D6E7684D0020C44C0020F9
:10106000784C0020644D00200C01002072B6FEE791
:1010700000B585B0002300930193029303931448B5
:10108000144A02604FF48032426083600361037649
:1010900080F82030C362104A8262C3600122C261BC
:1010A00080F83030426100F0A7FC68B90B23009350
:1010B00001230193002302936946054800F0C8FC10
:1010C00020B905B05DF804FBFFF7D0FFFFF7CEFFB6
:1010D000104C0020002001400100000F00B585B039
:1010E000002300930193029303931448144A02606F
:1010F0004FF48032426083600361037680F82030D1
:10110000C362104A8262C3600122C26180F830303B
:10111000426100F071FC68B9092300930123019337
:10112000002302936946054800F092FC20B905B0FF
:101130005DF804FBFFF79AFFFFF798FFD04A002005
:10114000002101400100000F08B50A480A4B036066
:101150000A4B436000238360C3604FF48042026106
:1011600043618361C361036201F06AFD00B908BD98
:10117000FFF77CFF184B002000540040A0860100C0
:1011800008B50A480A4B03604FF40072426000231E
:101190008360C3600261074A42618361C361036285
:1011A00001F02CFE00B908BDFFF760FF6C4D002078
:1011B000003C00400077010000B587B00023019398
:1011C000029303930493059300931A481A4A02600A
:1011D00043607F228260FF22C260036143618361BA
:1011E00002F045F900BB00238DF804308DF805307E
:1011F0008DF8063004930593012201A90D4802F0F1
:10120000A3F998B901228DF800208DF801208DF8FE
:10121000022000238DF803306946064802F013FAD5
:1012200030B907B05DF804FBFFF720FFFFF71EFFA2
:10123000FFF71CFF584C00200028004008B50D485F
:101240000D4B03604FF48273436000238360C360DF
:10125000036143614FF400728261C36103624362C0
:1012600083620A23C36202F047FB00B908BDFFF79F
:10127000FDFE00BFC84C00200030014000B587B023
:10128000002302930393049305930093019313485F
:10129000134A0260436083604FF6FF72C2600361CD
:1012A0004361836102F04EFD90B94FF48053029385
:1012B00002A90A4802F07EFD60B900230093019361
:1012C0006946064802F0E4FD30B907B05DF804FB5A
:1012D000FFF7CCFEFFF7CAFEFFF7C8FE7C4C0020EC
:1012E0000000014008B50A480A4B03604FF4E1339F
:1012F000436000238360C36003610C224261836109
:10130000C36102F015FF00B908BDFFF7AFFE00BFD3
:10131000204D00200044004008B50A480A4B0360F5
:101320004FF4E133436000238360C36003610C2208
:1013300042618361C36102F0FBFE00B908BDFFF7A3
:1013400095FE00BF8C4A00200048004000B599B0CF
:10135000302200210DEB020005F0F8FE0023079378
:10136000089309930A930B930393049305930693AD
:1013700001932A4A116C41F080511164126C02F001
:1013800080520192019A0293254B1A6842F48042DE
:101390001A601B6803F480430293029B09230C9399
:1013A0004FF480330D9301231193022312934FF4D2
:1013B00080021392082214924FF4A8721592169389
:1013C000072317930CA800F00BFC00BB0F23079317
:1013D00002230893002309934FF4A0530A934FF478
:1013E00080530B93052107A800F05CFE88B9032306
:1013F0000393C0230493022305934FF400730693D1
:1014000003A800F025FF30B919B05DF804FBFFF721
:101410002DFEFFF72BFEFFF729FE00BF003802402C
:101420000070004008B501F0CBFBFFF78FFFFFF71E
:10143000F5F8FFF71DFEFFF751FEFFF785FEFFF7FA
:101440009FFEFFF7B9FEFFF7F9FEFFF717FFFFF763
:1014500049FFFFF761FF03F0C5F9FFF703FBFFF753
:101460000DFB00221421012003F089FF0B4B1860B3
:1014700000220621012003F082FF094B1860FFF7CC
:1014800069FD084B1870FFF775FDFFF701FA03F0CF
:1014900019FD054B186004F0D9FCFEE7684D0020EB
:1014A000C44C00200C010020784C0020FEE7FEE731
:1014B000FEE7FEE7FEE7704708B501F09BFB05F08D
:1014C00065F8012800D108BD05F0FCFCFBE708B574
:1014D0004FF4007001F078FA08BD000008B502482A
:1014E00002F036FF08BD00BF8C4A002008B54FF45B
:1014F000006001F069FA08BD00B583B000220092D7
:101500000D4B596C41F480415964596C01F4804190
:10151000009100990192196C41F0805119641B6C83
:1015200003F080530193019B0F216FF0010001F044
:10153000C9FA03B05DF804FB0038024000B58BB077
:101540000023059306930793089309930368244A9D
:10155000934205D0234A934222D00BB05DF804FB9E
:1015600000220192204B596C41F480715964596CEE
:1015700001F48071019101990292196B41F004010B
:1015800019631B6B03F004030293029B062305936C
:1015900003230693079205A9144801F08BF8DCE7B2
:1015A00000220392104B596C41F400715964596C3C
:1015B00001F40071039103990492196B41F0020147
:1015C00019631B6B03F002030493049B022305932E
:1015D00003230693079205A9054801F06BF8BCE7C1
:1015E0000020014000210140003802400008024074
:1015F0000004024030B589B000230393049305939F
:10160000069307930268154B9A4201D009B030BD8A
:1016100000250195124C236B43F002032363236BD7
:1016200003F002030193019B4FF410730393122301
:1016300004930123059306950423079303A90948FE
:1016400001F038F80295236C43F400132364236CF3
:1016500003F400130293029BD8E700BF005400403C
:10166000003802400004024070B588B000230393A4
:10167000049305930693079302681F4B9A4201D087
:1016800008B070BD0024009403F5FE331A6C42F4D8
:1016900000421A641A6C02F400420092009A01940B
:1016A0001A6B42F001021A631A6B02F001020192F6
:1016B000019A02941A6B42F004021A631B6B03F046
:1016C00004030293029B10230393022604960594BD
:1016D00006940625079503A9084800F0EBFF4FF490
:1016E000A4530393049605940694079503A904480C
:1016F00000F0E0FFC4E700BF003C004000000240F3
:10170000000802400268044B9A4200D07047034B25
:1017100001221A60FAE700BF002800403C0E474251
:1017200000B589B0002303930493059306930793B0
:101730000268154B9A4202D009B05DF804FB002202
:10174000019203F58433596C41F480515964596C0A
:1017500001F48051019101990292196B41F001014C
:1017600019631B6B03F001030293029BE0230393B5
:1017700002230493059206920523079303A90348C5
:1017800000F098FFD8E700BF0030014000000240A1
:1017900008B50268064B9A4200D008BD054A536C52
:1017A00023F480535364E021034801F06DF8F4E71B
:1017B0000030014000380240000002400268094B3E
:1017C0009A4200D0704782B000230193064B5A6CB6
:1017D00042F001025A645B6C03F001030193019B28
:1017E00002B07047000001400038024010B58AB0D6
:1017F00000230593069307930893099303682C4AE3
:10180000934204D02B4A934225D00AB010BD002247
:101810000192294B196C41F400311964196C01F4DF
:101820000031019101990292196B41F00101196394
:101830001B6B03F001030293029B0C23059302230D
:1018400006930792032308930723099305A91B48CE
:1018500000F030FFD9E700240394174B1A6C42F4D0
:1018600080221A641A6C02F480220392039A049470
:101870001A6B42F008021A631B6B03F0080304930F
:10188000049B4FF4407305930223069307940323AC
:1018900008930723099305A9094800F00BFF224686
:1018A0000521272001F00EF9272001F03FF9ACE7D0
:1018B0000044004000480040003802400000024060
:1018C000000C02404A4B5A6822F440325A605A686F
:1018D00041680A435A600268536823F48073536076
:1018E00002685368016943EA012353600268536840
:1018F00023F0407353600268536881680B43536060
:101900000268936823F40063936002689368C16877
:101910000B439360826A374B9A4257D002689368B0
:1019200023F07063936002689368816A0B4393604D
:101930000268936823F04053936002689368C16A19
:101940000B4393600268936823F00203936002687C
:101950009368017E43EA4103936090F82030002BA6
:101960003FD00268536843F40063536002685368D1
:1019700023F46043536001684B68426A013A43EACA
:1019800042334B600268D36A23F47003D362016868
:10199000CB6AC269013A43EA0253CB620268936898
:1019A00023F4007393600268936890F8301043EA60
:1019B000412393600268936823F480639360026814
:1019C0009368416943EA8123936070470268936892
:1019D00023F0706393600268936823F04053936030
:1019E000B0E70268536823F400635360CAE700BF9E
:1019F000002301400100000F38B310B50446036C0A
:101A000043B1236C13F0100F0BD00120002384F896
:101A10003C3010BDFFF792FD0023636484F83C3036
:101A2000EFE7236C23F4885323F0020343F002030F
:101A300023642046FFF746FF00206064236C23F0F8
:101A4000030343F001032364E0E701207047000033
:101A500030B482B00023019390F83C30012B00F0A9
:101A6000B780012380F83C300B68092B3ED905680C
:101A7000EA689BB203EB43031E3B072404FA03F31B
:101A800022EA0303EB600568EA688C680B8803EBC5
:101A900043031E3B04FA03F31343EB604B68062B2E
:101AA0003AD805686A6B03EB8303053B1F2404FAED
:101AB00003F322EA03036B6305686A6B4B6803EB6D
:101AC0008303053B0C8804FA03F313436B6302683A
:101AD000404B9A4250D002683E4B9A4255D0002368
:101AE00080F83C30184602B030BC704705682A695F
:101AF0009BB203EB4303072404FA03F322EA030334
:101B00002B6105682A698C680B8803EB430304FA90
:101B100003F313432B61C1E70C2B16D805682A6B1E
:101B200003EB8303233B1F2404FA03F322EA03039A
:101B30002B6305682A6B4B6803EB8303233B0C88FC
:101B400004FA03F313432B63C1E70568EA6A03EB66
:101B50008303413B1F2404FA03F322EA0303EB62ED
:101B60000568EA6A4B6803EB8303413B0C8804FA7F
:101B700003F31343EB62AAE70B68122BABD1164AAF
:101B8000536843F480035360A5E70B68103B012BB7
:101B9000A5D8114A536843F4000353600B68102B17
:101BA0009DD10E4B1B6802F1467202F52E3202F2F5
:101BB0008332A2FB03239B0C03EB83035B000193A3
:101BC00002E0019B013B0193019B002BF9D186E7C9
:101BD000022088E70020014000230140740000201B
:101BE000002800F0DF8170B582B00446036813F06E
:101BF000010F3BD0A64B9B6803F00C03042B2CD0A9
:101C0000A34B9B6803F00C03082B21D06368B3F54A
:101C1000803F4FD0B3F5A02F52D09D4B1A6822F4CD
:101C200080321A601A6822F480221A606368002BDE
:101C300050D000F0EBFF0546954B1B6813F4003FB6
:101C400014D100F0E3FF401B6428F5D90320B0E174
:101C50008F4B5B6813F4800FD8D08D4B1B6813F447
:101C6000003F03D06368002B00F09E81236813F0CF
:101C7000020F54D0864B9B6813F00C0F3ED0844B60
:101C80009B6803F00C03082B33D0E368002B67D06C
:101C9000804B01221A6000F0B9FF05467C4B1B689F
:101CA00013F0020F53D100F0B1FF401B0228F5D909
:101CB00003207EE1764A136843F480331360B5E76E
:101CC000734B1A6842F480221A601A6842F4803218
:101CD0001A60ABE700F09AFF05466D4B1B6813F4E2
:101CE000003FC3D000F092FF401B6428F5D90320C9
:101CF0005FE1674B5B6813F4800FC6D1644B1B68D0
:101D000013F0020F03D0E368012B40F04F81604ACB
:101D1000136823F0F803216943EAC10313602368C1
:101D200013F0080F40D0636963B35B4B01221A6064
:101D300000F06CFF0546564B5B6F13F0020F33D17A
:101D400000F064FF401B0228F5D9032031E1504A1E
:101D5000136823F0F803216943EAC1031360DEE747
:101D60004C4B00221A6000F051FF0546484B1B689F
:101D700013F0020FD3D000F049FF401B0228F5D921
:101D8000032016E1444B00221A6000F03FFF054695
:101D90003F4B5B6F13F0020F06D000F037FF401B84
:101DA0000228F5D9032004E1236813F0040F78D04A
:101DB000374B1B6C13F0805F0DD100230193344B24
:101DC0001A6C42F080521A641B6C03F0805301932A
:101DD000019B012500E00025304B1B6813F4807F38
:101DE00021D0A368012B32D0052B36D0284B1A6F97
:101DF00022F001021A671A6F22F004021A67A36820
:101E0000002B34D000F002FF0646214B1B6F13F06D
:101E1000020F45D100F0FAFE801B41F28833984250
:101E2000F3D90320C5E01D4A136843F4807313609F
:101E300000F0ECFE0646194B1B6813F4807FD0D1EE
:101E400000F0E4FE801B0228F5D90320B1E0104A1F
:101E5000136F43F001031367D1E70D4B1A6F42F084
:101E600004021A671A6F42F001021A67C7E700F00E
:101E7000CDFE0646064B1B6F13F0020F10D000F08C
:101E8000C5FE801B41F288339842F3D9032090E0CD
:101E90000038024000004742800E47420070004078
:101EA000EDB9A369002B00F08380494A926802F0E3
:101EB0000C02082A51D0022B17D0464B00221A6080
:101EC00000F0A4FE0446424B1B6813F0007F42D092
:101ED00000F09CFE001B0228F5D9032069E03C4A73
:101EE000136C23F080531364DBE73A4B00221A6033
:101EF00000F08CFE0546364B1B6813F0007F06D0C1
:101F000000F084FE401B0228F5D9032051E0E3696C
:101F1000226A1343626A43EA8213A26A5208013AB0
:101F200043EA0243E26A43EA0263294A5360294BC7
:101F300001221A6000F06AFE0446254B1B6813F06C
:101F4000007F06D100F062FE001B0228F5D90320B5
:101F50002FE000202DE000202BE0012B2BD01C4B8C
:101F60005B6803F48001E269914226D103F03F02ED
:101F7000216A8A4223D1616A47F6C0721A40B2EBE5
:101F8000811F1ED103F44031A26A5208013AB1EB1D
:101F9000024F18D103F07063E26AB3EB026F14D101
:101FA000002006E001207047012002E0012000E04F
:101FB000002002B070BD0120FBE70120F9E70120FD
:101FC000F7E70120F5E70120F3E70120F1E700BF83
:101FD0000038024060004742F8B52F4B9B6803F081
:101FE0000C03042B53D0082B53D12B4B5A6802F00F
:101FF0003F025B6813F4800F28D0274B5B68C3F364
:10200000881358010021C01A61F100018E0146EACF
:10201000906687013C1A66EB0105E90041EA5471BC
:10202000E000C01841F100014B0243EAD0534402E2
:10203000204619460023FEF773F9174B5B68C3F37C
:10204000014301335B00B0FBF3F023E0124B5B680C
:10205000C3F388135C010025E41A65F10005AE01A5
:1020600046EA9466A701381B66EB0501CC0044EAFA
:102070005074C500E81844F100018B0243EA905304
:102080008402204619460023FEF74AF9D5E70348A3
:1020900000E00348F8BD00BF0038024000127A009B
:1020A0000024F400002800F09B8070B50D46044623
:1020B0004F4B1B6803F007038B4208D2CBB24C4A4C
:1020C0001370136803F007038B4240F08B80236882
:1020D00013F0020F17D013F0040F04D0454A936891
:1020E00043F4E0539360236813F0080F04D0414A8F
:1020F000936843F4604393603E4A936823F0F0038F
:10210000A1680B439360236813F0010F32D063681A
:10211000012B21D09A1E012A25D9364A126812F0C5
:10212000020F61D033498A6822F0030213438B60A7
:1021300000F06CFD06462F4B9B6803F00C036268B1
:10214000B3EB820F16D000F061FD801B41F28833A3
:102150009842F0D9032042E0264A126812F4003F68
:10216000E0D101203BE0234A126812F0007FD9D170
:10217000012034E01E4B1B6803F00703AB4207D974
:10218000EAB21B4B1A701B6803F00703AB422DD158
:10219000236813F0040F06D0164A936823F4E05323
:1021A000E1680B439360236813F0080F07D0114ACE
:1021B000936823F46043216943EAC1039360FFF706
:1021C0000BFF0C4B9B68C3F303130B4AD35CD84043
:1021D0000A4B18600A4B186800F0CCFC002070BD58
:1021E000012070470120FAE70120F8E70120F6E717
:1021F000003C024000380240407B00087400002090
:1022000004000020014B1868704700BF74000020D4
:1022100008B5FFF7F7FF044B9B68C3F38223034A1B
:10222000D35CD84008BD00BF00380240507B000896
:1022300008B5FFF7E7FF044B9B68C3F34233034A3B
:10224000D35CD84008BD00BF00380240507B000876
:1022500030B583B00446036813F0050F06D1236838
:1022600013F0020F2ED1002003B030BD494B0022E5
:102270001A6000F0CBFC0546474B1B6813F0006F5B
:1022800006D000F0C3FC431B022BF5D90320EBE77B
:102290006268A3681B0743EA82133F4AC2F884308E
:1022A0003C4B01221A6000F0B1FC05463A4B1B681A
:1022B00013F0006FD3D100F0A9FC431B022BF5D91A
:1022C0000320D1E700230193334B1A6C42F0805274
:1022D0001A641B6C03F080530193019B2F4A13680F
:1022E00043F48073136000F091FC05462B4B1B6890
:1022F00013F4807F06D100F089FC431B022BF5D933
:102300000320B1E7244B1B6F13F4407312D0E26833
:1023100002F440729A420DD01F4B1A6F22F44072A1
:102320001F4901200860002008601A671B6F13F026
:10233000010F13D1E36803F44072B2F5407F1ED061
:10234000154A936823F4F813936013490B6FE268FE
:10235000C2F30B0213430B67002085E700F056FC25
:1023600005460D4B1B6F13F0020FE3D100F04EFC3E
:10237000401B41F288339842F3D9032074E70649A1
:102380008A6822F4F81223F0704323F44073134355
:102390008B60DAE768004742003802400070004076
:1023A000400E4742012801D000207047164B9B6821
:1023B00013F4000303D0012B23D114487047124BB0
:1023C0005B6813F4800F14D00F4B5B6803F03F037E
:1023D0000F48B0FBF3F00C4AD2F88430C3F38813F3
:1023E00000FB03F0D2F88430C3F30273B0FBF3F0C8
:1023F0007047054B5B6803F03F030648B0FBF3F002
:10240000E9E70020704700BF003802400080BB00B1
:1024100000127A000024F40010B40A490C6924F474
:1024200040740C610C6944F440740C610C6944F014
:1024300001040C610260BFF36F8F43605DF8044BD1
:10244000704700BF003C0240074B1A6922F44072FB
:102450001A611A6942F400721A611A6942F00102A3
:102460001A610160704700BF003C0240074B1A69C7
:1024700022F440721A611A6942F480721A611A6970
:1024800042F001021A610180704700BF003C024027
:10249000064B1A6922F440721A611A691A611A69A4
:1024A00042F001021A610170704700BF003C024017
:1024B000204BDB6813F0100F07D01F4AD36943F09D
:1024C0001003D3611B4B1022DA601A4BDB6813F048
:1024D000200F07D0184AD36943F00803D361154B86
:1024E0002022DA60134BDB6813F0400F07D0124A4A
:1024F000D36943F00403D3610E4B4022DA600D4BE5
:10250000DB6813F0800F07D00B4AD36943F0020356
:10251000D361084B8022DA60064BDB6813F0020FB0
:1025200007D0054AD36943F02003D361014B02224F
:10253000DA607047003C0240B44D0020094B1B6933
:10254000002B01DB00207047064B074A5A6002F15E
:1025500088325A601B69002B01DB00207047012084
:10256000704700BF003C024023016745034A1369DE
:1025700043F0004313610020704700BF003C02405D
:1025800038B50446144B0022DA6100F03FFB0546E3
:10259000124BDB6813F4803F0AD0B4F1FF3FF7D051
:1025A00024B100F033FB401BA042F1D903200DE021
:1025B0000A4BDB6813F0010F02D0084B0122DA60EE
:1025C000064BDB6813F0F20F01D1002038BDFFF796
:1025D0006FFF0120FAE700BFB44D0020003C02402D
:1025E000F8B516461B4A127E012A30D004460D4625
:1025F0001F46184B01221A764CF25030FFF7C0FFED
:1026000090B9ACB1012C18D0022C1BD032463B46FD
:102610002846FFF701FF4CF25030FFF7B1FF0E4A9A
:10262000136923F0010313610A4B00221A76F8BDE7
:10263000F1B22846FFF72CFFEDE7B1B22846FFF7CD
:1026400015FFE8E731462846FFF7FEFEE3E70220E4
:10265000EDE700BFB44D0020003C024010B449B18A
:10266000012921D0022902D04FF4407403E04FF435
:10267000007400E000240E4B196921F440711961C7
:102680001A6922431A611A6922F0F8021A611A695A
:1026900042EAC00040F0020018611A6942F4803238
:1026A0001A615DF8044B70474FF48074E3E700BF94
:1026B000003C024000230F2B00F2DD80F0B482B01A
:1026C0005DE086685F000324BC4026EA0406CC680F
:1026D000BC4034438460466826EA02064C68C4F372
:1026E00000129A403243426057E0DC08083450F848
:1026F000247003F0070296000F22B24027EA020777
:102700000A69B2403A4340F824205AE0072200E028
:102710000022B2403A430234574E46F82420574A2A
:102720001468EA4324EA05064F6817F4803F01D095
:1027300045EA0406514C2660646802EA04064F68C4
:1027400017F4003F01D045EA04064C4C6660A468CB
:1027500002EA04064F6817F4801F01D045EA040618
:10276000464CA660E46822404E6816F4001F01D073
:1027700045EA0402414CE26001330F2B78D8012274
:102780009A400C6804EA020532EA0404F4D14C6869
:1027900004F00304013C012C93D94A6802F00302BF
:1027A000032A09D0C4685E000322B24024EA02046E
:1027B0008A68B2402243C2604A6802F00302022AD9
:1027C00093D004685E000322B24024EA02044A68FF
:1027D00002F00302B240224302604A6812F0805FB6
:1027E000CAD000220192264A546C44F480445464B6
:1027F000526C02F480420192019A9C08A61C1E4A67
:1028000052F8267003F0030296000F22B24027EA26
:1028100002071C4A90423FF47BAF02F5806290426F
:102820001AD002F58062904218D002F58062904280
:1028300016D002F58062904214D002F58062904278
:1028400012D002F58062904210D002F58062904270
:102850003FF45CAF08225CE701225AE7022258E706
:10286000032256E7042254E7052252E7062250E7E6
:1028700002B0F0BC7047704700380140003C014096
:10288000003802400000024000230F2B00F28F802E
:10289000F0B52DE0072600E0002606FA04F4AC426D
:1028A00069D005685C00032606FA04F425EA0405ED
:1028B000056023FA06F5083550F8256003F0070790
:1028C0004FEA870C0F2707FA0CF726EA070640F8AD
:1028D0002560C56825EA0405C560456825EA020249
:1028E0004260826822EA0404846001330F2B5DD8C1
:1028F00001229A4002EA010732EA0104F5D14FEAC7
:10290000930C0CF102052A4C54F8255003F00304F3
:10291000A4000F2606FA04FE0EEA0505254EB04275
:10292000BAD006F58066B04219D006F58066B0428E
:1029300017D006F58066B04215D006F58066B04225
:1029400013D006F58066B04211D006F58066B0421D
:102950000FD006F58066B0429CD008269DE7012680
:102960009BE7022699E7032697E7042695E70526C5
:1029700093E7062691E7104C256825EA07052560B0
:10298000656825EA07056560A56825EA0705A5606D
:10299000E56825EA0707E760054D0CF1020455F8E4
:1029A000246026EA0E0645F824607AE7F0BD7047F9
:1029B0000038014000000240003C01400AB1816142
:1029C000704709048161704708B5054B5B69034294
:1029D00000D108BD024B5861FEF726F8F9E700BFA9
:1029E000003C014070B50446866D00F00FF994F884
:1029F0003530DBB2022B06D080236365002384F8D8
:102A00003430012070BD05462268136823F0160398
:102A100013602268536923F080035361236CE3B190
:102A20002268136823F0080313602268136823F0F8
:102A30000103136023681B6813F0010F11D000F02D
:102A4000E5F8431B052BF5D920236365002384F8A3
:102A50003430032084F83500D4E7A36C002BDFD199
:102A6000E3E7E26D3F239340B360002084F8340035
:102A7000012384F83530C5E790F83530DBB2022BFE
:102A800003D08023436501207047052380F835304B
:102A90000268136823F001031360002070470000F0
:102AA000074AD36823F4E0631B041B0C000200F404
:102AB000E060034343F0BF6343F40033D3607047E7
:102AC00000ED00E030B4174BDB68C3F30223C3F121
:102AD0000704042C28BF04241D1D062D18D9033B10
:102AE0004FF0FF3505FA04F421EA0401994005FA94
:102AF00003F322EA0303194300280BDB0901C9B2DF
:102B000000F1604000F5614080F8001330BC704770
:102B10000023E5E700F00F000901C9B2024B195488
:102B2000F4E700BF00ED00E014ED00E0002807DB53
:102B300000F01F02400901239340024A42F820306E
:102B4000704700BF00E100E00138B0F1807F0AD299
:102B5000064B5860064AF02182F823100020986046
:102B600007221A6070470120704700BF10E000E0A4
:102B700000ED00E010B504460E4B18784FF47A7360
:102B8000B3FBF0F30C4A1068B0FBF3F0FFF7DCFF87
:102B900068B90F2C01D901200AE0002221464FF02C
:102BA000FF30FFF78FFF054B1C60002000E0012085
:102BB00010BD00BF000000207400002004000020B1
:102BC00008B50B4B1A6842F400721A601A6842F496
:102BD00080621A601A6842F480721A600320FFF75C
:102BE0005FFF0F20FFF7C6FFFEF786FC002008BD41
:102BF000003C0240034A1168034B1B780B441360EE
:102C0000704700BFD44D002000000020014B186821
:102C1000704700BFD44D002038B50446FFF7F6FFDB
:102C20000546B4F1FF3F02D0044B1B781C44FFF76C
:102C3000EDFF401BA042FAD338BD00BF00000020CA
:102C4000002800F0CC80F8B5044690F83D30002B09
:102C500077D0242384F83D302268136823F00103E1
:102C600013602268136843F40043136022681368FA
:102C700023F400431360FFF7CBFA62685A4B9A4281
:102C800064D85A4B98428CBF00230123002B40F09C
:102C9000A880574DA5FB0035AF0C2668716821F060
:102CA0003F0141EA9541716021680B6A23F03F03BF
:102CB00065684D4A95424FD87A1C13430B622568CC
:102CC000E96921F44F4121F0FF016368464A9342CC
:102CD0004CD801385B00B0FBF3F0013040F6FC73D8
:102CE000184278D0C0F30B030B43EB6121680B68EB
:102CF00023F0C003E269206A024313430B6021689A
:102D00008B6823F4034323F0FF032269E068024346
:102D100013438B602168CB6823F0FF036269A069CD
:102D200002431343CB602268136843F0010313602E
:102D300000202064202384F83D30206384F83E0086
:102D4000F8BD80F83C30FEF755FC82E7294B9842ED
:102D50008CBF0023012399E74FF4967202FB07F220
:102D6000254DA5FB025292090132A6E7A268BAB925
:102D7000461E03EB4307B6FBF7F60136C6F30B0618
:102D8000B6FA86F6760946BBC2B9421E03EB430388
:102D9000B2FBF3F20132C2F30B0242F40043A3E7A9
:102DA000461E03EB830707EB8707B6FBF7F60136F2
:102DB000C6F30B06B6FA86F67609E4E7421E03EB85
:102DC000830303EB8303B2FBF3F20132C2F30B0282
:102DD00042F4404388E7042386E7012384E7012087
:102DE00070470120ACE700BFA08601007F841E0071
:102DF00083DE1B43FF083D00D34D6210002800F026
:102E0000BD8070B5044690F84130002B51D00222AD
:102E100084F841202168CB6923F47B6323F00F03FE
:102E2000CB6123681A626369934263D0E368002B25
:102E300046D11025A368202B00D86D000120FFF794
:102E4000B1FA2369B3F5007F3CD0B0FBF5F000EB9D
:102E5000800043006069B3FBF0F30533484AA2FBEE
:102E60000323C3F3C002C2EBD3035B0811029A1E13
:102E7000FD2A41D822690A43216813430B62216865
:102E8000CB6923F47B6323F00F036268A0680243DD
:102E9000E0680243A0690243134343F40063CB613B
:102EA000236A012B2ED000206064012384F8413076
:102EB00070BD80F84030334B4363FEF7D5FBA6E787
:102EC0002025B7E7E36853B1AD00B0FBF5F000EBA8
:102ED000800043006069B3FBF0F30533BEE7ED000B
:102EE000B0FBF5F000EB800043006069B3FBF0F34A
:102EF0000533B3E70021BAE7636C43F01003636462
:102F00000120D5E7204B63632268204B9A421FD0F3
:102F10004FF04022D36923F47B6323F00F03D36186
:102F200022681A4B9A4215D04FF0402302221A62AF
:102F30002268164B9A4210D04FF04025EB699BB2A5
:102F40006268B2F5007F0AD0B2B94FF4807008E031
:102F50000F4ADFE7A3F58063E8E70D4DEEE74FF496
:102F600080702689A189228B304301430A43134391
:102F700043F40063EB6196E70020F2E7012070471D
:102F8000CDCCCCCC0B3000081D32000800380040FE
:102F900000340040704708B5426A03681288DA605E
:102FA000436A02334362438D9BB2013B9BB243852C
:102FB000438D9BB203B108BD0268536823F0A003A0
:102FC0005360012380F84130FFF7E4FFF3E77047D7
:102FD00008B50368DA68C36A1A80C36A0233C36239
:102FE000438E9BB2013B9BB24386438E9BB203B19F
:102FF00008BD0268536823F060035360012380F822
:103000004130FFF7E4FFF3E7704710B584B00446A2
:1030100002689368039390F84130DBB2042B06D02A
:1030200094F84130DBB2032B2CD004B010BD039BCD
:1030300013F0010F03D0536813F0400F1FD1039B0F
:1030400013F0400FECD023685A6812F0200FE7D03D
:103050005A6822F060025A60002301932368DA68FC
:1030600001929B680193019B012384F84130636CBA
:1030700043F0020363642046FFF7C6FFD0E7FFF783
:10308000A7FFDCE7039B13F0020F04D023685B6803
:1030900013F0800F1DD1039B13F0080FC5D02368D8
:1030A0005A6812F0200FC0D05A6822F0A0025A606D
:1030B0000023029323689B680293029B012384F8F8
:1030C0004130636C43F0040363642046FFF79CFFC8
:1030D000ABE72046FFF75FFFDDE7704708B5436ABF
:1030E0009A1C426202681B88D360438D9BB2013BED
:1030F0009BB24385438D9BB23BB90268536823F072
:10310000A0035360438E9BB203B108BD012380F836
:103110004130FFF7E2FFF8E708B50268154B9A4225
:103120001CD04FF04023DA68C36A991CC1621A8030
:10313000438E9BB2013B9BB24386438E9BB263B9E5
:1031400002680C4B9A420CD04FF04022536823F097
:1031500060035360438D9BB22BB108BDA3F5806320
:10316000E1E7054AF2E7012380F84130FFF7B5FFB8
:10317000F3E700BF003800400034004008B5436A60
:103180009A1C42621A880168134B994218D04FF07A
:103190004023DA60438D9BB2013B9BB24385438D54
:1031A0009BB263B902680C4B9A420CD04FF040229C
:1031B000536823F0A0035360438E9BB22BB108BD2C
:1031C000A3F58063E5E7054AF2E7012380F8413083
:1031D000FFF783FFF3E700BF0038004000340040F2
:1031E00008B50368DA68C36A991CC1621A80438E05
:1031F0009BB2013B9BB24386438E9BB23BB90268B4
:10320000536823F060035360438D9BB203B108BD44
:10321000012380F84130FFF760FFF8E710B586B072
:10322000044603689A680592704A93426FD04FF043
:103230004022916804915B6803935368029363682A
:10324000B3F5007F01D0002B70D1059B13F0020F66
:1032500003D0039B13F0800F5CD1049B13F0010F8C
:1032600003D0029B13F0400F58D1049B13F0400F82
:1032700024D0029B13F0200F20D022685B4B9A428F
:1032800050D04FF04022536823F06003536022680F
:10329000536823F0A0035360002300932368DA6887
:1032A00000929B680093009B012384F84130636C7B
:1032B00043F0020363642046FFF7A6FE059B13F06C
:1032C000080F22D0039B13F0200F1ED022685368F2
:1032D00023F0A00353602268444B9A4224D04FF05D
:1032E0004022536823F06003536000230193236856
:1032F0009B680193019B012384F84130636C43F088
:10330000040363642046FFF77FFE06B010BDA2F5FC
:1033100080628EE72046FFF7E1FE9EE72046FFF73A
:10332000FBFEA2E7324AAEE7314ADAE7049B13F02C
:10333000020F03D0029B13F0800F4AD1059B13F0BC
:10334000010F03D0039B13F0400F46D1059B13F0F0
:10335000400F1CD0039B13F0200F18D02268536835
:1033600023F0600353602268204B9A4239D04FF01B
:103370004022536823F0A0035360012384F84130B6
:10338000636C43F0020363642046FFF73DFE049B39
:1033900013F0080FB9D0029B13F0200FB5D02268AC
:1033A000124B9A421FD04FF04022536823F0A003E3
:1033B00053602268536823F060035360012384F84C
:1033C0004130636C43F0040363642046FFF71CFE46
:1033D0009BE72046FFF7D2FEB0E72046FFF700FF4D
:1033E000B4E7034AC5E7024ADFE700BF0038004000
:1033F0000034004003684AF6AA221A600020704791
:1034000038B504460268D36823F0A003D360FFF701
:10341000FDFB05462368DB6813F0200F07D1FFF79B
:10342000F5FB401BB0F57A7FF4D9032000E00020C3
:1034300038BD38B50368DA6812F0400F01D00020BB
:1034400038BD04464FF0FF32DA60FFF7DFFB054678
:103450002368DB6813F0400F07D1FFF7D7FB431B4E
:10346000B3F57A7FF4D90320EAE70020E8E738B51E
:1034700000285CD00446437F002B41D002236377B1
:103480002368CA225A62236853225A622046FFF7F1
:10349000D0FF0546002837D12268936823F4E00363
:1034A00023F04003936021688A68636820690343BE
:1034B0006069034313438B602368E2681A612268E2
:1034C0001369A16843EA014313612268D36823F0BA
:1034D0008003D36023689B6813F0200F1BD0226801
:1034E000136C23F4802313642268136CA1690B43CB
:1034F00013642368FF225A6201236377284638BD8C
:103500000377FEF7FFF8B9E72368FF225A62042326
:1035100063770125F2E72046FFF772FF0028DED02F
:103520002368FF225A62042363770125E6E7012519
:10353000E4E70023092803D901330A38C0B2F9E7C8
:103540001B01DBB218437047F8B5037F012B78D01D
:1035500004460E460123037702234377002A47D10E
:1035600003689B6813F0400F01D10023CB703078C3
:10357000FFF7DFFF05047078FFF7DBFF45EA002562
:10358000B078FFF7D6FF0543F07845EA0045236899
:10359000CA225A62236853225A622046FFF749FF23
:1035A0000746002836D1236805F07F3525F0FE4513
:1035B0001D602268936823F48023936021688B68E0
:1035C000F2683069024313438B602268D36823F0AA
:1035D0008003D36023689B6813F0200F23D02368F7
:1035E000FF225A6201236377002323773846F8BD10
:1035F00003689B6813F0400F01D10023CB7035782E
:103600007078000240EA0540B5782843F57840EA32
:103610000545BCE72368FF225A6204236377002331
:1036200023770127E2E72046FFF7EAFE0028D6D0FD
:103630002368FF225A62042363770023237701273C
:10364000D4E70227D2E770B5037F012B66D004468A
:103650000E4601230377022343773AB94B7813F0E0
:10366000100F03D003F0EF030A334B70002A33D15D
:10367000F078FFF75EFF05047078FFF75AFF45EA20
:103680000025B078FFF755FF0543307845EA40350F
:103690002368CA225A62236853225A622046FFF7DF
:1036A000C8FE064618BB236825F07F4525F0C005F7
:1036B0005D602268D36823F08003D36023689B6831
:1036C00013F0200F1CD02368FF225A620123637776
:1036D00000232377304670BDF5787078000240EA09
:1036E0000540B5782843357840EA4535D0E723686A
:1036F000FF225A6204236377002323770126E9E738
:103700002046FFF77DFE0028DDD02368FF225A62A5
:1037100004236377002323770126DBE70226D9E71A
:10372000030903EB830300F00F0000EB4300C0B27A
:10373000704770B50C4603689B6A4B6003681B6951
:10374000C3F30E038B6003681D68C5F30641C5F320
:1037500005402070C5F30626667005F07F05A5704C
:1037600001F04003E37052B9FFF7DAFF20703046F2
:10377000FFF7D6FF60702846FFF7D2FFA070002049
:1037800070BD70B503685B68C3F30740C870C3F3CE
:1037900004264E7003F03F058D70C3F342330B7067
:1037A0005AB90C46FFF7BCFFE0703046FFF7B8FF90
:1037B00060702846FFF7B4FFA070002070BD0000C5
:1037C0002DE9F04782B00546884617461E46FFF7AA
:1037D0001DFA0A9B1B1A03EB0609FFF717FA82462C
:1037E0002A4B1B68C3F3CB3309FB03F301932B680C
:1037F0009C6838EA04030CBF01240024BC4240D07A
:10380000B6F1FF3FF3D0FFF701FAA0EB0A004845FD
:103810000AD2B9F1000F07D0019A02B14A46019BC2
:10382000013B01939146E2E72A68536823F0E003E5
:1038300053606B68B3F5827F0BD0AB6AB3F5005F62
:1038400014D0012385F85130002385F8503003202F
:1038500018E0AB68B3F5004F02D0B3F5806FECD140
:103860002A68136823F040031360E6E72A681368A8
:1038700023F4005313602A68136843F40053136061
:10388000DFE7002002B0BDE8F08700BF7400002031
:1038900030B585B00446164B1868164BA3FB0030B4
:1038A000400D4FF47A7505FB00F003906368B3F5A3
:1038B000827F0BD0039BBBB1039B013B0393236827
:1038C0009B6813F0800FF5D100200EE000920B46AC
:1038D000002280212046FFF773FF30B1636D43F073
:1038E00020036365032000E0002005B030BD00BF69
:1038F00074000020819F5E1600285AD010B504463F
:10390000436A33B94368B3F5827F05D00023C361AE
:1039100002E00023036143610023A36294F8513065
:10392000002B40D0022384F851302268136823F022
:1039300040031360636803F48273A26802F40442D4
:103940001343E26802F400621343226902F00202A8
:103950001343626902F001021343A26902F4007288
:103960001343E26902F038021343226A02F0800234
:103970001343A26A02F40052216813430B60638B65
:1039800003F00403626A02F01002216813434B60E3
:103990002268D36923F40063D361002060650123AA
:1039A00084F8513010BD84F850302046FDF7B8FE41
:1039B000B8E70120704790B110B50446022380F8A3
:1039C00051300268136823F040031360FDF7E0FEF6
:1039D0000020606584F8510084F8500010BD01207B
:1039E00070472DE9F04383B01F460A9D90F8503090
:1039F000012B00F01081044688469146012380F88F
:103A00005030FFF703F9064694F85130DBB2626894
:103A1000012B0AD0B2F5827F40F0E380A268002A31
:103A200040F0E980042B40F0E880B8F1000F00F08E
:103A3000E680B9F1000F00F0E480002F00F0E38091
:103A400094F85130DBB2042B02D0052384F85130B6
:103A500000236365C4F83890E787A787C4F83080EF
:103A6000E786A7862364636423681A6812F0400F10
:103A700003D11A6842F040021A60E368B3F5006FA0
:103A800011D063680BB1012F0BD1226B2368127820
:103A90001A73236B01332363E38E9BB2013B9BB20A
:103AA000E38601276BE063680BB1012F0BD1226B1A
:103AB00023681288DA60236B02332363E38E9BB2A0
:103AC000013B9BB2E38601271CE023689A6812F051
:103AD000010F0ED0E28F92B25AB1DA68A36B1A804E
:103AE000A36B0233A363E38F9BB2013B9BB2E387DB
:103AF0000127FFF78BF8801BA84203D3B5F1FF3FE6
:103B000040F08380E38E9BB21BB9E38F9BB2002B06
:103B100053D023689A6812F0020FD6D0E28E92B288
:103B2000002AD2D0002FD0D0226B1288DA60236B0B
:103B300002332363E38E9BB2013B9BB2E3860027F3
:103B4000C3E723689A6812F0010F0ED0E28F92B299
:103B50005AB1DA68A36B1A70A36B0133A363E38FC6
:103B60009BB2013B9BB2E3870127FFF74FF8831B12
:103B7000AB4202D3B5F1FF3F49D1002D49D0E38ECE
:103B80009BB213B9E38F9BB2BBB123689A6812F062
:103B9000020FD6D0E28E92B2002AD2D0002FD0D01F
:103BA000226B12781A73236B01332363E38E9BB26B
:103BB000013B9BB2E3860027C3E7324629462046F5
:103BC000FFF766FE48B9A36863B901932368DA6812
:103BD00001929B680193019B04E02023636501200F
:103BE00000E00220012384F85130002384F8503093
:103BF00003B0BDE8F0830220F4E70220F2E70120E1
:103C0000F0E70120EEE70120ECE70320EAE70320DC
:103C1000E8E70320E6E70220EAE790F85100704762
:103C200030B4036A056A25F001050562846924F051
:103C3000F00444EA021423F00A030B438461036294
:103C400030BC704730B4056A25F010050562846900
:103C5000036A24F4704444EA023423F0A00343EAE4
:103C600001138461036230BC7047836823F07003E2
:103C70000B4343F007038360704700000368304A3A
:103C8000904212D0B0F1804F0FD0A2F57C4290420A
:103C90000BD002F58062904207D002F5806290421C
:103CA00003D002F57842904203D123F070034A68B2
:103CB0001343234A90422AD0B0F1804F27D0A2F577
:103CC0007C42904223D002F5806290421FD002F5E0
:103CD000806290421BD002F57842904217D002F5E4
:103CE0007052904213D002F5806290420FD002F5DC
:103CF000806290420BD0A2F59832904207D002F534
:103D00008062904203D002F58062904203D123F496
:103D10004073CA68134323F080034A691343036066
:103D20008B68C3620B688362054B984203D003F52E
:103D30008063984201D10B6903630123436170479B
:103D40000000014040B310B5044690F83D30F3B197
:103D5000022384F83D30214651F8040BFFF78EFF13
:103D6000012384F8463084F83E3084F83F3084F8EC
:103D7000403084F8413084F8423084F8433084F88D
:103D8000443084F8453084F83D30002010BD80F880
:103D90003C30FDF713FDDBE70120704710B4846869
:103DA00024F47F4442EA03220A43224382605DF8FE
:103DB000044B704790F83C30012B66D010B5044698
:103DC000012380F83C30022380F83D30026893687C
:103DD00023F47F4323F0770393600B68602B40D07C
:103DE00022D8402B47D00BD9502B0ED1CA68496836
:103DF0000068FFF715FF50212068FFF736FF04E049
:103E0000202B0CD008D9302B09D0012384F83D3069
:103E1000002084F83C0010BD0BB1102BF5D11946E1
:103E20002068FFF722FFF0E7702B0ED0B3F5005F9C
:103E3000EBD1CB684A6889680068FFF7AFFF22685A
:103E4000936843F480439360DFE7CB684A688968EE
:103E50000068FFF7A3FF2268936843F0770393603D
:103E6000D3E7CA6849680068FFF7ECFE6021206864
:103E7000FFF7FBFEC9E7CA6849680068FFF7D0FE94
:103E800040212068FFF7F1FEBFE7022070470000E5
:103E900090F83C30012B3BD030B4012380F83C300B
:103EA000022380F83D3003685C689D6824F070044C
:103EB0000A6822435A600368164A93421AD0B3F143
:103EC000804F17D0A2F57C42934213D002F5806256
:103ED00093420FD002F5806293420BD002F57842F4
:103EE000934207D002F57052934203D0A2F5943268
:103EF000934204D125F080054A6815439D60012353
:103F000080F83D30002380F83C30184630BC7047C4
:103F100002207047000001400268D36823F49073C8
:103F2000D3600268536923F001035361036B012BD3
:103F300005D0202380F83E300023036370470268D9
:103F4000D36823F01003D360F3E790F83D30DBB281
:103F5000212B01D0022070478368B3F5805F17D012
:103F6000036A5A1C02621A7803685A60C38C9BB2B7
:103F7000013B9BB2C3844BB90268D36823F0800332
:103F8000D3600268D36843F04003D36000207047D9
:103F90000369002BE4D1036A1B880268C3F308039A
:103FA0005360036A02330362E0E7000070B5044621
:103FB0000268136923F44053C1680B43136183689B
:103FC0000269134342691343C2691A430168CB680B
:103FD00023F4164323F00C031343CB6002685369A8
:103FE00023F4407381690B4353610368344A93425D
:103FF00006D002F58062934202D0FEF709F901E093
:10400000FEF716F9E369B3F5004F2AD0002605182C
:1040100046EB06012D1846EB0101CB0043EA557330
:10402000EA001546194663689A009B0F281846EB6C
:104030000101FCF775F9234DA5FB003251096423FA
:1040400003FB11031B013233A5FB03235B0903F0C0
:10405000F00202EB011203F00F03216813448B609E
:1040600070BD0026051846EB06012D1846EB010130
:10407000CB0043EA5573EA00154619466268334699
:10408000921846EB0303281846EB0101FCF748F9A8
:104090000C4DA5FB00325109642303FB1103DB0027
:1040A0003233A5FB03235B095A0002F4F87202EBDA
:1040B000011203F00703216813448B60D0E700BFAF
:1040C000001001401F85EB512DE9F84305460F46CE
:1040D00016469946DDF820802C68246837EA0403E8
:1040E0000CBF01240024B4421FD1B8F1FF3FF3D02C
:1040F000B8F1000F05D0FEF789FDA0EB090040459F
:10410000EAD92A68D36823F4D073D3602A68536944
:1041100023F001035361202385F83D3085F83E30BC
:10412000002385F83C30032000E00020BDE8F88340
:1041300058B310B5044690F83D300BB3242384F8EF
:104140003D302268D36823F40053D3602046FFF744
:104150002DFF2268136923F4904313612268536989
:1041600023F02A0353612268D36843F40053D360D9
:1041700000202064202384F83D3084F83E3010BDB8
:1041800080F83C30FDF732FBD8E7012070472DE97D
:10419000F04182B01E4690F83D30DBB2202B54D166
:1041A00004460D469046002953D0002A53D090F87B
:1041B0003C30012B51D0012380F83C3000230364B4
:1041C000212380F83D30FEF721FD0746A4F8248026
:1041D000A4F82680A368B3F5805F05D04FF00008EF
:1041E000002384F83C3012E0236913B14FF000083B
:1041F000F6E7A8460025F3E738F8023B2268C3F348
:1042000008035360E28C92B2013A92B2E284E38CEA
:104210009BB273B100963B46002280212046FFF7F7
:1042200053FFE0B9002DE7D015F8012B23685A6041
:10423000E8E700963B46002240212046FFF744FF76
:1042400078B9202384F83D3000E0022002B0BDE8B8
:10425000F0810120FAE70120F8E70220F6E70320C9
:10426000F4E70320F2E7704708B50168CA6822F056
:104270004002CA60202280F83D20FFF7F4FF0020B2
:1042800008BD704708B5806B0023C385C384FFF762
:10429000F8FF08BD704790F83E30DBB2222B53D1B7
:1042A00010B504468368B3F5805F30D0A26AB3F5D9
:1042B000805F04D0002B37D12369002B34D12368D1
:1042C0005B681370A36A0133A362E38D9BB2013B69
:1042D0009BB2E385002B39D12268D36823F02003F9
:1042E000D3602268D36823F48073D3602268536953
:1042F00023F001035361202384F83E30236B012B0C
:1043000018D02046FCF74CFB002020631FE0026918
:10431000002ACBD1826A03685B68C3F30803138069
:10432000836A02338362D0E723685B6803F07F030C
:104330001370C7E72268D36823F01003D360A18D00
:104340002046FFF7A7FFDFE702207047002010BDDF
:1043500030B583B0044602681368D068516913F021
:104360000F0505D113F0200F02D010F0200F19D146
:104370002DB111F0010119D110F4907F16D1216BEC
:10438000012975D013F0800F03D010F0800F40F09A
:10439000D88013F0400F03D010F0400F40F0D580CC
:1043A00003B030BD2046FFF776FFF9E713F0010FA9
:1043B00006D010F4807F03D0226C42F00102226408
:1043C00013F0040F04D019B1226C42F002022264EF
:1043D00013F0020F04D019B1226C42F004022264DF
:1043E00013F0080F07D010F0200F00D119B1226C84
:1043F00042F008022264226C002AD1D013F0200F70
:1044000002D010F0200F21D123685B6903F0400334
:10441000226C12F0080F00D123B32046FFF77CFD79
:1044200023685A6912F0400F18D05A6922F04002EE
:104430005A61A36B73B1474A1A65A06BFEF71CFB68
:104440000028ADD0A06B036D9847A9E72046FFF781
:1044500022FFD9E72046FFF714FFA1E72046FFF728
:1044600010FF9DE72046FFF70CFF0023236497E72A
:1044700013F0100F86D010F0100F83D0002301939B
:104480001368019353680193019B536913F0400F24
:1044900033D0A16B0B685B689BB2002B80D0A08DE2
:1044A00098427FF67DAFE385CB69B3F5807F08D175
:1044B000A18DE38D9BB2C91A89B22046FFF7EAFEAF
:1044C0006EE7D36823F48073D3602268536923F0C6
:1044D000010353612268536923F040035361202391
:1044E00084F83E30002323632268D36823F010034E
:1044F000D360A06BFEF776FADAE7A18DE38D9BB26D
:10450000C91A89B2E38D9BB2002B3FF449AF002951
:104510003FF446AFD36823F49073D36022685369A5
:1045200023F001035361202384F83E3000232363EA
:104530002268D36823F01003D3602046FFF7AAFE59
:104540002EE72046FFF701FD2AE72046FFF78CFE05
:1045500026E700BF85420008034681628285C28546
:1045600000201864222283F83E2083F83C0019685A
:10457000CA6842F48072CA6019684A6942F001024E
:104580004A611A68D36843F02003D360704708B5C6
:1045900090F83E30DBB2202B0DD171B17AB190F89A
:1045A0003C30012B0DD0012380F83C300023036305
:1045B000FFF7D2FF00E0022008BD0120FCE7012048
:1045C000FAE70220F8E7000000B589B00021019168
:1045D000114B5A6C42F480525A645A6C02F4805265
:1045E0000192019A02911A6B42F001021A631B6B4D
:1045F00003F001030293029BE0230393022304933D
:104600000593012306930523079303A90348FEF7A7
:1046100051F809B05DF804FB003802400000024088
:1046200010B51048FFF7F9FA00B110BD0D4C0E4B54
:1046300023601823E3610023A36063612361A36205
:104640000722E262E36023624FF40072A2616362B8
:104650004FF482736360FFF7B7FF2046FFF74CF912
:10466000E3E700BF1C0100200030014008B503480B
:10467000FFF7A1F9FFF7D4FF08BD00BF1C01002020
:1046800000B587B08DF80F0000238DF817300A4B66
:104690001B68009301230DF117020DF10F0107486C
:1046A000FFF79FF920B99DF8170007B05DF804FBEC
:1046B000FFF7DCFFF7E700BF080000201C01002027
:1046C00070B586B0002100910E4B1A6B42F01002BB
:1046D0001A631B6B03F010030093009B08260196DE
:1046E0000124029403910494074D01A92846FDF783
:1046F000E1FF224631462846FEF760F9FFF790FFBA
:1047000006B070BD003802400010024010B586B0FF
:10471000002400940E4B1A6B42F010021A631B6BBC
:1047200003F010030093009B02230193094A0292B5
:104730000493039401A90848FDF7BCFF22460F210A
:104740000720FEF7BFF90720FEF7F0F906B010BD0D
:1047500000380240000011100010024070B50546FC
:104760000E461446012A01D941F0400600220821D4
:104770000948FEF723F93046FFF782FF34B115F8F8
:10478000010BFFF77DFF013CA4B2F7E701220821EE
:104790000148FEF713F970BD0010024070B50546E0
:1047A0001446012A12D941F0C006002208210C4803
:1047B000FEF704F93046FFF763FF54B10020FFF71E
:1047C0005FFF05F8010B013CA4B2F6E741F080065B
:1047D000EBE7012208210248FEF7F0F870BD00BFA8
:1047E0000010024010B5104B9B6898473B2806D03C
:1047F0000E4B9B6898473F280DD0012010BD0C4CF4
:10480000094B23601B684720984723689B6A2D202B
:1048100098470020F2E7054B054A13601B686720A4
:1048200098470020EAE700BF0C000020400000206D
:10483000740100200A4B1B681B6B7BB110B504464A
:104840009847074B1A68074B9A4200D010BDB4F93D
:104850000030628822805B426380F7E7704700BFC8
:10486000740100200C000020704710B582B004468F
:1048700000238DF80730FFF723FF8DF80740012252
:1048800020210DF10700FFF769FF02B010BD00B550
:1048900083B000238DF80730FFF712FF01220F21AC
:1048A0000DF10700FFF77AFF9DF8070003B05DF8F0
:1048B00004FB10B582B0044600238DF807300122B6
:1048C00021210DF10700FFF769FF9DF8073003F084
:1048D000D00343EA04008DF80700012221210DF1E5
:1048E0000700FFF73BFF02B010BD00B585B0002305
:1048F0008DF80730012239210DF10700FFF74EFF37
:104900000622272102A8FFF749FF05B05DF804FB46
:1049100000B583B0012221210DF10700FFF73EFF12
:104920009DF8073043F040038DF807300122212124
:104930000DF10700FFF712FF03B05DF804FB10B59F
:1049400086B00446012220210DF10700FFF726FF63
:104950000622292104A8FFF721FF002308E006AA68
:1049600002EB430212F9081C22F8101C0133DBB2DF
:10497000022BF4D99DF8073003F0200313B912215C
:1049800000230CE04821FBE706AA02EB430232F9C0
:10499000102C12FB01F224F813200133DBB2022B9E
:1049A000F2D906B010BD10B582B0044600238DF8D0
:1049B0000730012238210DF10700FFF7EFFE2278C2
:1049C0006178A3780A4313438DF807300122382118
:1049D0000DF10700FFF7C2FE02B010BD30B583B085
:1049E00000238DF80730FFF791FE40238DF8043047
:1049F00010238DF8053020238DF8063001A8FFF72D
:104A0000D2FF3F248DF80740012222210DF107003B
:104A1000FFF7A4FE50238DF80730012238210DF155
:104A20000700FFF79BFEAA238DF8073001223B21E8
:104A30000DF10700FFF792FE0A238DF807300122DF
:104A40003C210DF10700FFF789FE4C238DF807305C
:104A5000012230210DF10700FFF780FE03238DF8BE
:104A6000073001223D210DF10700FFF777FE7F257A
:104A70008DF8075001223E210DF10700FFF76EFE71
:104A80008DF80750012221460DF10700FFF766FE61
:104A900003B030BD704710B582B0044600238DF8D6
:104AA0000730FFF70DFE8DF80740012220210DF1A0
:104AB0000700FFF753FE240A8DF807400122242146
:104AC0000DF10700FFF74AFE02B010BD00B583B03C
:104AD00000238DF80730FFF7F3FD01220F210DF1C0
:104AE0000700FFF75BFE9DF8070003B05DF804FBCD
:104AF00000B583B0012225210DF10700FFF74EFE1E
:104B00009DF8073063F07F038DF8073001222521DF
:104B10000DF10700FFF722FE03B05DF804FB000073
:104B200010B584B00446012224210DF10700FFF7DF
:104B300035FE0122282102A8FFF730FE012229219B
:104B40000DF10900FFF72AFE01222A210DF10A00CA
:104B5000FFF724FE01222B210DF10B00FFF71EFEB3
:104B600001222C2103A8FFF719FE01222D210DF1AE
:104B70000D00FFF713FE9DF8073003F03803083BE4
:104B8000182B0ED8DFE803F01A0D0D0D0D0D0D0DCD
:104B9000110D0D0D0D0D0D0D140D0D0D0D0D0D0D3A
:104BA00017009FED177A002225E09FED167AFAE7AD
:104BB0009FED157AF7E79FED157AF4E79FED147AEC
:104BC000F1E751004B1C04A8034413F9080C04AB93
:104BD000194411F9083C03EB002307EE903AF8EE74
:104BE000E77A67EE877AFDEEE77A17EE903A24F8D7
:104BF00012300132D2B2022AE3D904B010BD00BF94
:104C00008FC2753DEC51383E8FC2753E48E13A3F48
:104C10008FC2F53D10B582B00446427801788378A2
:104C20000A4313438DF80730012223210DF10700B9
:104C3000FFF794FDE378227913438DF807300122C2
:104C400021210DF10700FFF789FD6379A279134354
:104C50008DF80730012222210DF10700FFF77EFDBC
:104C600002B010BD30B583B000258DF80750FFF7B6
:104C70004DFD8DF801508DF8005040238DF8023025
:104C80008DF8035001248DF805408DF806506846D4
:104C9000FFF7C0FF03238DF80730224652210DF1A4
:104CA0000700FFF75BFDC8238DF80730224654212B
:104CB0000DF10700FFF752FD45238DF8073022461E
:104CC00056210DF10700FFF749FDFC238DF8073051
:104CD00022465A210DF10700FFF740FDA1238DF870
:104CE000073022465B210DF10700FFF737FD8DF8F5
:104CF000074022465C210DF10700FFF72FFD2246F9
:104D00007B210DF10700FFF729FD224660210DF1FF
:104D10000700FFF723FD06238DF8073022466121A7
:104D20000DF10700FFF71AFD28238DF80730224602
:104D300062210DF10700FFF711FD11238DF80730F7
:104D4000224663210DF10700FFF708FD03B030BDD7
:104D5000F8B503460D4614468F080020014657B1AA
:104D60001E4656F8082BC2FBC2015B68C3FBC30199
:104D7000013F3346F3E705F0030604E033F9022B65
:104D8000C2FBC201013E002EF8D12A460023FBF7E8
:104D900077FAC00B40EA414000F30F00214600B211
:104DA00000F002F8F8BD0000002869DD70B4B0FA28
:104DB00080F4113C224614F0010456D1904000B218
:104DC000451007EE900AF8EEE77A9FED307A67EE2D
:104DD000877A2F4B17EE906AA3EB660307EE903AA3
:104DE000FEEEC97A17EE903A1EB206FB06F343F3C5
:104DF000CF3305FB03F343F3CF33C3F5405303FB3A
:104E000006F343F3CF339B001EB206FB06F343F3D6
:104E1000CF3303FB05F343F3CF33C3F5405303FB19
:104E200006F343F3CF339B001BB203FB03F646F3B9
:104E3000CF3606FB05F545F3CF35C5F5405505FBE7
:104E400003F343F3CF339B001BB200FB03F343F3A5
:104E5000CF335B001BB264B902EBD272521043FA3B
:104E600002F20A80002070BC7047531E984000B2C6
:104E7000A6E7013A02EBD272521043FA02F2F0E7CF
:104E800000230B804FF0FF30704700BF0000003858
:104E9000DF59375F034AD2F8883043F47003C2F811
:104EA0008830704700ED00E01AB9084206D110467C
:104EB000704731EA000303D000207047012070479B
:104EC0000120704738B5202001F064FE044628B167
:104ED000002540F8045B00F0CFF82577204638BD68
:104EE0002DE9F047DDF820A078B10D461746984629
:104EF000064611F07F4911D04FF0500383F311881B
:104F0000BFF36F8FBFF34F8FFEE74FF0500383F374
:104F10001188BFF36F8FBFF34F8FFEE741B94FF09A
:104F2000500383F31188BFF36F8FBFF34F8FFEE7FA
:104F300001F02CFB58B9BAF1000F08D04FF0500324
:104F400083F31188BFF36F8FBFF34F8FFEE700F03D
:104F5000C7FF3468424629462046FFF7A5FFE0B167
:104F600017B124EA0503336001F056F8B9F1000FD8
:104F700010D038B91C4B4FF080521A60BFF34F8FDE
:104F8000BFF36F8F01F05AFB044610F0007F1BD077
:104F900024F07F442046BDE8F087BAF1000F11D01D
:104FA0006FB94946B8F1000F01D041F08061524617
:104FB0002943301D01F0C4F94C46D146D4E74FF0E7
:104FC0008071EFE7D146CFE701F00CFF346842462D
:104FD00029462046FFF768FF18B117B124EA0505F6
:104FE000356001F021FFD3E704ED00E0F8B568B1CA
:104FF0000D46044611F07F4611D04FF0500383F365
:105000001188BFF36F8FBFF34F8FFEE74FF0500350
:1050100083F31188BFF36F8FBFF34F8FFEE700F16B
:105020000C0700F05DFF206923682B4323600AE032
:10503000216833EA010105D111E0216841F00071D6
:1050400001F00CFA2846B8420ED04568026822F0FA
:105050007F4312F0806FEBD121681942F2D012F039
:10506000807FEAD01E43E8E7236823EA0603236033
:1050700000F0D2FF2068F8BD00F1080343604FF054
:10508000FF328260C3600361002303607047002326
:105090000361704743684B609A688A605160996009
:1050A0000861036801330360704730B40D68B5F1DF
:1050B000FF3F11D000F108031C465B681A68AA4242
:1050C000FAD963684B6099608C606160086103681D
:1050D0000133036030BC70470469F2E7036941683B
:1050E00082688A60416851605A68824206D0002214
:1050F00002611A68013A1A601868704782685A603B
:10510000F5E710B5044601F06DFEA26BE36B9A4221
:1051100004D0002401F088FE204610BD0124F9E7E8
:1051200010B5044601F05EFEA36B23B9012401F023
:105130007BFE204610BD0024F9E770B504461546F5
:10514000866B026C5AB903681BB100200136A66356
:1051500070BD806801F02AFA0023A360F6E76DB9FC
:10516000406801F0E5FF226C636813446360A26845
:10517000934219D3236863602846E7E7C06801F0CB
:10518000D7FF226C5142E3689B1AE3602268934286
:1051900002D2A3680B44E360022D01D00020D5E7C2
:1051A00026B1013E0020D1E72846CFE70020CDE719
:1051B0000346026C6AB110B50846D9681144D9603B
:1051C0009C68A14201D31968D960D96801F0B0FF89
:1051D00010BD704738B5054601F004FE95F845400E
:1051E00064B203E001F0CCF9013C64B2002C08DDAC
:1051F0006B6A33B105F1240001F0EAF80028F3D01E
:10520000F0E7FF2385F8453001F00EFE01F0EAFDDE
:1052100095F8444064B203E001F0B2F9013C64B295
:10522000002C08DD2B6933B105F1100001F0D0F836
:105230000028F3D0F0E7FF2385F8443001F0F4FDB7
:1052400038BD000038B5E0B10D46044601F0CAFD96
:105250002168E26B236C03FB0210A0600020A063B6
:105260006160013A02FB0313E360FF2384F84430DA
:1052700084F84530EDB9236963B901F0D5FD01200B
:1052800038BD4FF0500383F31188BFF36F8FBFF326
:105290004F8FFEE704F1100001F09AF80028ECD0DF
:1052A000084B4FF080521A60BFF34F8FBFF36F8FE0
:1052B000E3E704F11000FFF7DFFE04F12400FFF73D
:1052C000DBFEDAE704ED00E038B51D46049C0B4632
:1052D00049B92460E063236401212046FFF7B2FF4F
:1052E00084F84C5038BD2260F4E740B94FF05003C9
:1052F00083F31188BFF36F8FBFF34F8FFEE730B595
:1053000085B01C46054653B192B189B94FF05003A0
:1053100083F31188BFF36F8FBFF34F8FFEE74FF01A
:10532000500383F31188BFF36F8FBFF34F8FFEE7F6
:105330006AB150230393039B502B13D04FF05003BB
:1053400083F31188BFF36F8FBFF34F8FFEE7002900
:10535000EFD04FF0500383F31188BFF36F8FBFF38B
:105360004F8FFEE7039B012384F8463000949DF89D
:1053700020302846FFF7A8FF204605B030BD40B9D1
:105380004FF0500383F31188BFF36F8FBFF34F8F3C
:10539000FEE7F0B583B00D461646074601FB00F068
:1053A000503001F0F7FB044650B1002380F846303E
:1053B0000090334600F1500229463846FFF784FF3B
:1053C000204603B0F0BD0000F0B585B0019288B171
:1053D0000E461D460446B1B1022D20D1E36B012BD0
:1053E0001DD04FF0500383F31188BFF36F8FBFF3CD
:1053F0004F8FFEE74FF0500383F31188BFF36F8F99
:10540000BFF34F8FFEE7036C002BE5D04FF0500346
:1054100083F31188BFF36F8FBFF34F8FFEE701F067
:10542000B5F8074658B9019B002B44D04FF0500304
:1054300083F31188BFF36F8FBFF34F8FFEE7002711
:1054400039E02A4631462046FFF777FE626A6AB99C
:1054500038B13C4B4FF080521A60BFF34F8FBFF30F
:105460006F8F01F0E1FC012005B0F0BD04F12400D4
:1054700000F0AEFF0028F4D0324B4FF080521A609B
:10548000BFF34F8FBFF36F8FEBE701F0CDFC002030
:10549000EAE702A801F026F8012719E0002384F8C2
:1054A000443021E0002384F8453023E02046FFF714
:1054B00091FE00F0B1FD01F095FCA26BE36B9A4206
:1054C000BFD3022DBDD0019B002BDED0002FE0D03A
:1054D00001F0AAFC00F004FD01F084FC94F84430D3
:1054E0005BB2B3F1FF3FD9D094F845305BB2B3F172
:1054F000FF3FD7D001F098FC01A902A800F0FEFF01
:10550000C8B92046FFF7FDFD0028CFD0019904F16E
:10551000100000F0FDFE2046FFF75CFE00F07CFD71
:105520000028C8D1074B4FF080521A60BFF34F8F4D
:10553000BFF36F8FBFE72046FFF74CFE00F06CFD16
:10554000002091E704ED00E02DE9F84390B1894691
:1055500090461F460446B1B1022F20D1E36B012BC8
:105560001DD04FF0500383F31188BFF36F8FBFF34B
:105570004F8FFEE74FF0500383F31188BFF36F8F17
:10558000BFF34F8FFEE7036C002BE5D04FF05003C5
:1055900083F31188BFF36F8FBFF34F8FFEE701F0E6
:1055A0004BFDEFF311864FF0500383F31188BFF3E7
:1055B0006F8FBFF34F8FA26BE36B9A4206D3022F1C
:1055C00004D0002086F31188BDE8F88394F8455094
:1055D0006DB2A36B3A4649462046FFF7AEFDB5F1E2
:1055E000FF3F05D06B1C5BB284F845300120E9E732
:1055F000636A0BB90120E5E704F1240000F0E8FE3E
:1056000030B1B8F1000F05D00120C8F80000D9E78B
:105610000120D7E70120D5E7F0B585B0019290B120
:105620000E460446C1B100F0B1FF074600BB019B26
:10563000002B5CD04FF0500383F31188BFF36F8FC2
:10564000BFF34F8FFEE74FF0500383F31188BFF392
:105650006F8FBFF34F8FFEE7036C002BE3D04FF04B
:10566000500383F31188BFF36F8FBFF34F8FFEE7B3
:1056700000273CE031462046FFF79AFD013DA56337
:10568000236923B901F0D0FB012005B0F0BD04F17E
:10569000100000F09DFE0028F4D0354B4FF08052F2
:1056A0001A60BFF34F8FBFF36F8FEBE701F0BCFBC6
:1056B0000020EAE702A800F015FF012721E00023FF
:1056C00084F8443029E0002384F845302BE020465C
:1056D000FFF780FD00F0A0FC09E02046FFF77AFD0F
:1056E00000F09AFC2046FFF71BFD00283DD101F099
:1056F00079FBA56B002DBDD1019B002BD6D0002FCF
:10570000D8D001F091FB00F0EBFB01F06BFB94F8BB
:1057100044305BB2B3F1FF3FD1D094F845305BB277
:10572000B3F1FF3FCFD001F07FFB01A902A800F049
:10573000E5FE0028D1D12046FFF7F2FC0028C6D0B4
:10574000019904F1240000F0E3FD2046FFF742FD3B
:1057500000F062FC0028CAD1054B4FF080521A605D
:10576000BFF34F8FBFF36F8FC1E700208DE700BFFE
:1057700004ED00E0002300E00133072B0BD8064ABC
:1057800052F83320002AF7D1034A42F8331002EBD3
:10579000C303586070477047D84D0020002300E0D5
:1057A0000133072B0DD8074A02EBC302526882422D
:1057B000F6D1044A002142F8331002EBC3035960CA
:1057C00070477047D84D002038B110B50446FFF738
:1057D000E5FF94F846304BB110BD4FF0500383F312
:1057E0001188BFF36F8FBFF34F8FFEE7204601F0A4
:1057F0004FFAF1E770B504460D46164601F0F2FA8D
:1058000094F844305BB2B3F1FF3F0DD094F84530CB
:105810005BB2B3F1FF3F0BD001F006FBA36B5BB1B2
:105820002046FFF7D7FC70BD002384F84430EDE735
:10583000002384F84530EFE73246294604F124007E
:1058400000F0AAFDECE7000028B141690C4A914242
:105850000AD0002070474FF0500383F31188BFF344
:105860006F8FBFF34F8FFEE7836A064A934202D0E1
:105870001BB100207047002070470120704700BF17
:10588000440600202C060020084B1B681B6823B927
:10589000074B4FF0FF321A607047044B1B68DB6800
:1058A000DB685A68024B1A60704700BF7C01002019
:1058B000200600202DE9F04780460D461746994600
:1058C000089EDDF824A00A9C9200A521206B01F01F
:1058D0003DFC236B07F18042013A03EB820727F07E
:1058E000070785B300220F2A07D8A95CA31883F8FD
:1058F0003410AB5C0BB10132F5E7002384F8433080
:10590000372E00D93726E662E66400252565201D7E
:10591000FFF7BDFB04F11800FFF7B9FB2461C6F1E6
:105920003806A6616462656584F858504A46414667
:10593000384601F029FA2060BAF1000F01D0CAF808
:105940000040BDE8F087002384F83430D8E7000039
:1059500038B50024372C08D804EB840293000E4895
:105960001844FFF789FB0134F4E70C4D2846FFF794
:1059700083FB0B4C2046FFF77FFB0A48FFF77CFBBD
:105980000948FFF779FB0948FFF776FB084B1D60D4
:10599000084B1C6038BD00BF84010020F8050020C2
:1059A0000C0600202C06002058060020440600208B
:1059B0007C0100208001002010B5044601F012FA9D
:1059C000214A136801331360204B1B685BB1204BE5
:1059D0001B686BB91D4B1B68DA6AE36A9A4207D8E9
:1059E0001A4B1C6004E0194B1C601368012B27D074
:1059F000184A1368013313606364E06A164B1B682E
:105A0000984201D9144B186000EB8000211D134B04
:105A100003EB8000FFF73EFB01F006FA0C4B1B681E
:105A20006BB10A4B1B68DA6AE36A9A4207D20C4BE5
:105A30004FF080521A60BFF34F8FBFF36F8F10BDCE
:105A4000FFF786FFD4E700BFE405002078010020BF
:105A500040060020F0050020F4050020840100200D
:105A600004ED00E010B5044690F8593063B1012B05
:105A700011D0022B0ED04FF0500383F31188BFF3E7
:105A80006F8FBFF34F8FFEE7006B01F001F92046E7
:105A900001F0FEF810BD01F0FBF8FBE70F4B1B68AF
:105AA000D3B110B501F09EF90D4BDB68DC68201D09
:105AB000FFF714FB0B4A1368013B1360074A136896
:105AC000013B136001F0B0F92046FFF7CBFF034B19
:105AD0001B68002BE6D110BD704700BFE805002011
